{
  "contractName": "SwapContractV2",
  "abi": [
    {
      "inputs": [
        {
          "internalType": "address",
          "name": "_factory",
          "type": "address"
        },
        {
          "internalType": "address",
          "name": "_WETH",
          "type": "address"
        },
        {
          "internalType": "address",
          "name": "_kyberNetwork",
          "type": "address"
        }
      ],
      "stateMutability": "nonpayable",
      "type": "constructor"
    },
    {
      "inputs": [],
      "name": "minAmount",
      "outputs": [
        {
          "internalType": "uint256",
          "name": "",
          "type": "uint256"
        }
      ],
      "stateMutability": "view",
      "type": "function",
      "constant": true
    },
    {
      "stateMutability": "payable",
      "type": "receive",
      "payable": true
    },
    {
      "inputs": [
        {
          "internalType": "uint256",
          "name": "_amount",
          "type": "uint256"
        }
      ],
      "name": "withdraw",
      "outputs": [],
      "stateMutability": "nonpayable",
      "type": "function"
    },
    {
      "inputs": [
        {
          "internalType": "address payable",
          "name": "_to",
          "type": "address"
        },
        {
          "internalType": "uint256",
          "name": "_amount",
          "type": "uint256"
        }
      ],
      "name": "transfer",
      "outputs": [],
      "stateMutability": "nonpayable",
      "type": "function"
    },
    {
      "inputs": [
        {
          "internalType": "uint256",
          "name": "_amount",
          "type": "uint256"
        }
      ],
      "name": "changeMinAmount",
      "outputs": [],
      "stateMutability": "nonpayable",
      "type": "function"
    },
    {
      "inputs": [
        {
          "internalType": "uint256",
          "name": "_amountIn",
          "type": "uint256"
        },
        {
          "internalType": "uint256",
          "name": "_amountUniswapOutMin",
          "type": "uint256"
        },
        {
          "internalType": "uint256",
          "name": "_amountOutMin",
          "type": "uint256"
        },
        {
          "internalType": "uint256",
          "name": "_minConversionRate",
          "type": "uint256"
        },
        {
          "internalType": "address[]",
          "name": "_path",
          "type": "address[]"
        },
        {
          "internalType": "uint256",
          "name": "_deadline",
          "type": "uint256"
        }
      ],
      "name": "uniswapToKyber",
      "outputs": [],
      "stateMutability": "nonpayable",
      "type": "function"
    }
  ],
  "bytecode": "0x6080604052677ce66c50e284000060015534801561001c57600080fd5b50604051611f74380380611f748339818101604052606081101561003f57600080fd5b8101908080519060200190929190805190602001909291908051906020019092919050505082600260006101000a81548173ffffffffffffffffffffffffffffffffffffffff021916908373ffffffffffffffffffffffffffffffffffffffff16021790555081600360006101000a81548173ffffffffffffffffffffffffffffffffffffffff021916908373ffffffffffffffffffffffffffffffffffffffff16021790555080600460006101000a81548173ffffffffffffffffffffffffffffffffffffffff021916908373ffffffffffffffffffffffffffffffffffffffff160217905550336000806101000a81548173ffffffffffffffffffffffffffffffffffffffff021916908373ffffffffffffffffffffffffffffffffffffffff160217905550505050611dfb806101796000396000f3fe60806040526004361061004e5760003560e01c80630e4d8bd9146100dd5780632e1a7d4d146101955780639b2cb5d8146101d0578063a9059cbb146101fb578063e34ffcb814610256576100d8565b366100d857600360009054906101000a900473ffffffffffffffffffffffffffffffffffffffff1673ffffffffffffffffffffffffffffffffffffffff1663d0e30db0346040518263ffffffff1660e01b81526004016000604051808303818588803b1580156100bd57600080fd5b505af11580156100d1573d6000803e3d6000fd5b5050505050005b600080fd5b3480156100e957600080fd5b50610193600480360360c081101561010057600080fd5b81019080803590602001909291908035906020019092919080359060200190929190803590602001909291908035906020019064010000000081111561014557600080fd5b82018360208201111561015757600080fd5b8035906020019184602083028401116401000000008311171561017957600080fd5b909192939192939080359060200190929190505050610291565b005b3480156101a157600080fd5b506101ce600480360360208110156101b857600080fd5b8101908080359060200190929190505050610a4f565b005b3480156101dc57600080fd5b506101e5610d3b565b6040518082815260200191505060405180910390f35b34801561020757600080fd5b506102546004803603604081101561021e57600080fd5b81019080803573ffffffffffffffffffffffffffffffffffffffff16906020019092919080359060200190929190505050610d41565b005b34801561026257600080fd5b5061028f6004803603602081101561027957600080fd5b8101908080359060200190929190505050611068565b005b8042811015610308576040517f08c379a00000000000000000000000000000000000000000000000000000000081526004018080602001828103825260078152602001807f455850495245440000000000000000000000000000000000000000000000000081525060200191505060405180910390fd5b87861161037d576040517f08c379a00000000000000000000000000000000000000000000000000000000081526004018080602001828103825260128152602001807f494e56414c49445f4d494e5f4f5554505554000000000000000000000000000081525060200191505060405180910390fd5b600360009054906101000a900473ffffffffffffffffffffffffffffffffffffffff1673ffffffffffffffffffffffffffffffffffffffff16848460008181106103c357fe5b9050602002013573ffffffffffffffffffffffffffffffffffffffff1673ffffffffffffffffffffffffffffffffffffffff1614610469576040517f08c379a000000000000000000000000000000000000000000000000000000000815260040180806020018281038252600d8152602001807f494e56414c49445f494e5055540000000000000000000000000000000000000081525060200191505060405180910390fd5b60606104d9600260009054906101000a900473ffffffffffffffffffffffffffffffffffffffff168a878780806020026020016040519081016040528093929190818152602001838360200280828437600081840152601f19601f82011690508083019250505050505050611133565b905087816001835103815181106104ec57fe5b602002602001015111610567576040517f08c379a000000000000000000000000000000000000000000000000000000000815260040180806020018281038252601b8152602001807f494e53554646494349454e545f554e49535741505f4f5554505554000000000081525060200191505060405180910390fd5b600360009054906101000a900473ffffffffffffffffffffffffffffffffffffffff1673ffffffffffffffffffffffffffffffffffffffff1663a9059cbb610624600260009054906101000a900473ffffffffffffffffffffffffffffffffffffffff16888860008181106105d857fe5b9050602002013573ffffffffffffffffffffffffffffffffffffffff168989600181811061060257fe5b9050602002013573ffffffffffffffffffffffffffffffffffffffff166112ab565b8360008151811061063157fe5b60200260200101516040518363ffffffff1660e01b8152600401808373ffffffffffffffffffffffffffffffffffffffff16815260200182815260200192505050602060405180830381600087803b15801561068c57600080fd5b505af11580156106a0573d6000803e3d6000fd5b505050506040513d60208110156106b657600080fd5b81019080805190602001909291905050506106cd57fe5b61071881868680806020026020016040519081016040528093929190818152602001838360200280828437600081840152601f19601f820116905080830192505050505050506113c4565b6107868585600181811061072857fe5b9050602002013573ffffffffffffffffffffffffffffffffffffffff1630600460009054906101000a900473ffffffffffffffffffffffffffffffffffffffff168460018651038151811061077957fe5b602002602001015161165c565b60606000600460009054906101000a900473ffffffffffffffffffffffffffffffffffffffff1673ffffffffffffffffffffffffffffffffffffffff1663c43190f530898960018181106107d657fe5b9050602002013573ffffffffffffffffffffffffffffffffffffffff168660018851038151811061080357fe5b60200260200101518b8b600081811061081857fe5b9050602002013573ffffffffffffffffffffffffffffffffffffffff16306b204fce5e3e250261100000008f3060008c6040518b63ffffffff1660e01b8152600401808b73ffffffffffffffffffffffffffffffffffffffff1681526020018a73ffffffffffffffffffffffffffffffffffffffff1681526020018981526020018873ffffffffffffffffffffffffffffffffffffffff1681526020018773ffffffffffffffffffffffffffffffffffffffff1681526020018681526020018581526020018473ffffffffffffffffffffffffffffffffffffffff16815260200183815260200180602001828103825283818151815260200191508051906020019080838360005b8381101561093b578082015181840152602081019050610920565b50505050905090810190601f1680156109685780820380516001836020036101000a031916815260200191505b509b505050505050505050505050602060405180830381600087803b15801561099057600080fd5b505af11580156109a4573d6000803e3d6000fd5b505050506040513d60208110156109ba57600080fd5b81019080805190602001909291905050509050888111610a42576040517f08c379a00000000000000000000000000000000000000000000000000000000081526004018080602001828103825260198152602001807f494e53554646494349454e545f4b594245525f4f55545055540000000000000081525060200191505060405180910390fd5b5050505050505050505050565b60008054906101000a900473ffffffffffffffffffffffffffffffffffffffff1673ffffffffffffffffffffffffffffffffffffffff163373ffffffffffffffffffffffffffffffffffffffff1614610b10576040517f08c379a000000000000000000000000000000000000000000000000000000000815260040180806020018281038252600c8152602001807f554e415554484f52495a4544000000000000000000000000000000000000000081525060200191505060405180910390fd5b80600360009054906101000a900473ffffffffffffffffffffffffffffffffffffffff1673ffffffffffffffffffffffffffffffffffffffff166370a08231306040518263ffffffff1660e01b8152600401808273ffffffffffffffffffffffffffffffffffffffff16815260200191505060206040518083038186803b158015610b9a57600080fd5b505afa158015610bae573d6000803e3d6000fd5b505050506040513d6020811015610bc457600080fd5b81019080805190602001909291905050501015610c49576040517f08c379a00000000000000000000000000000000000000000000000000000000081526004018080602001828103825260148152602001807f494e53554646494349454e545f42414c414e434500000000000000000000000081525060200191505060405180910390fd5b600360009054906101000a900473ffffffffffffffffffffffffffffffffffffffff1673ffffffffffffffffffffffffffffffffffffffff1663a9059cbb60008054906101000a900473ffffffffffffffffffffffffffffffffffffffff16836040518363ffffffff1660e01b8152600401808373ffffffffffffffffffffffffffffffffffffffff16815260200182815260200192505050602060405180830381600087803b158015610cfc57600080fd5b505af1158015610d10573d6000803e3d6000fd5b505050506040513d6020811015610d2657600080fd5b81019080805190602001909291905050505050565b60015481565b60008054906101000a900473ffffffffffffffffffffffffffffffffffffffff1673ffffffffffffffffffffffffffffffffffffffff163373ffffffffffffffffffffffffffffffffffffffff161480610de6575060008054906101000a900473ffffffffffffffffffffffffffffffffffffffff1673ffffffffffffffffffffffffffffffffffffffff168273ffffffffffffffffffffffffffffffffffffffff16145b610e58576040517f08c379a000000000000000000000000000000000000000000000000000000000815260040180806020018281038252600c8152602001807f554e415554484f52495a4544000000000000000000000000000000000000000081525060200191505060405180910390fd5b6001548101600360009054906101000a900473ffffffffffffffffffffffffffffffffffffffff1673ffffffffffffffffffffffffffffffffffffffff166370a08231306040518263ffffffff1660e01b8152600401808273ffffffffffffffffffffffffffffffffffffffff16815260200191505060206040518083038186803b158015610ee657600080fd5b505afa158015610efa573d6000803e3d6000fd5b505050506040513d6020811015610f1057600080fd5b81019080805190602001909291905050501015610f95576040517f08c379a00000000000000000000000000000000000000000000000000000000081526004018080602001828103825260148152602001807f494e53554646494349454e545f42414c414e434500000000000000000000000081525060200191505060405180910390fd5b600360009054906101000a900473ffffffffffffffffffffffffffffffffffffffff1673ffffffffffffffffffffffffffffffffffffffff1663a9059cbb83836040518363ffffffff1660e01b8152600401808373ffffffffffffffffffffffffffffffffffffffff16815260200182815260200192505050602060405180830381600087803b15801561102857600080fd5b505af115801561103c573d6000803e3d6000fd5b505050506040513d602081101561105257600080fd5b8101908080519060200190929190505050505050565b60008054906101000a900473ffffffffffffffffffffffffffffffffffffffff1673ffffffffffffffffffffffffffffffffffffffff163373ffffffffffffffffffffffffffffffffffffffff1614611129576040517f08c379a000000000000000000000000000000000000000000000000000000000815260040180806020018281038252600c8152602001807f554e415554484f52495a4544000000000000000000000000000000000000000081525060200191505060405180910390fd5b8060018190555050565b60606002825110156111ad576040517f08c379a000000000000000000000000000000000000000000000000000000000815260040180806020018281038252601e8152602001807f556e697377617056324c6962726172793a20494e56414c49445f50415448000081525060200191505060405180910390fd5b815167ffffffffffffffff811180156111c557600080fd5b506040519080825280602002602001820160405280156111f45781602001602082028036833780820191505090505b509050828160008151811061120557fe5b60200260200101818152505060005b60018351038110156112a3576000806112578786858151811061123357fe5b602002602001015187600187018151811061124a57fe5b6020026020010151611841565b9150915061127984848151811061126a57fe5b6020026020010151838361196a565b84600185018151811061128857fe5b60200260200101818152505050508080600101915050611214565b509392505050565b60008060006112ba8585611a9a565b91509150858282604051602001808373ffffffffffffffffffffffffffffffffffffffff1660601b81526014018273ffffffffffffffffffffffffffffffffffffffff1660601b8152601401925050506040516020818303038152906040528051906020012060405160200180807fff000000000000000000000000000000000000000000000000000000000000008152506001018373ffffffffffffffffffffffffffffffffffffffff1660601b8152601401828152602001807f96e8ac4277198ff8b6f785478aa9a39f403cb768dd02cbee326c3e7da348845f815250602001925050506040516020818303038152906040528051906020012060001c925050509392505050565b60005b6001825103811015611657576000808383815181106113e257fe5b60200260200101518460018501815181106113f957fe5b60200260200101519150915060006114118383611a9a565b509050600086600186018151811061142557fe5b602002602001015190506000808373ffffffffffffffffffffffffffffffffffffffff168673ffffffffffffffffffffffffffffffffffffffff161461146d57826000611471565b6000835b9150915060006002895103881061148857306114cc565b6114cb600260009054906101000a900473ffffffffffffffffffffffffffffffffffffffff16878b60028c01815181106114be57fe5b60200260200101516112ab565b5b90506114fb600260009054906101000a900473ffffffffffffffffffffffffffffffffffffffff1688886112ab565b73ffffffffffffffffffffffffffffffffffffffff1663022c0d9f848484600067ffffffffffffffff8111801561153157600080fd5b506040519080825280601f01601f1916602001820160405280156115645781602001600182028036833780820191505090505b506040518563ffffffff1660e01b8152600401808581526020018481526020018373ffffffffffffffffffffffffffffffffffffffff16815260200180602001828103825283818151815260200191508051906020019080838360005b838110156115dc5780820151818401526020810190506115c1565b50505050905090810190601f1680156116095780820380516001836020036101000a031916815260200191505b5095505050505050600060405180830381600087803b15801561162b57600080fd5b505af115801561163f573d6000803e3d6000fd5b505050505050505050505080806001019150506113c7565b505050565b600060608573ffffffffffffffffffffffffffffffffffffffff166323b872dd868686604051602401808473ffffffffffffffffffffffffffffffffffffffff1681526020018373ffffffffffffffffffffffffffffffffffffffff16815260200182815260200193505050506040516020818303038152906040529060e01b6020820180517bffffffffffffffffffffffffffffffffffffffffffffffffffffffff83818316178352505050506040518082805190602001908083835b6020831061173d578051825260208201915060208101905060208303925061171a565b6001836020036101000a0380198251168184511680821785525050505050509050019150506000604051808303816000865af19150503d806000811461179f576040519150601f19603f3d011682016040523d82523d6000602084013e6117a4565b606091505b50915091508180156117e457506000815114806117e357508080602001905160208110156117d157600080fd5b81019080805190602001909291905050505b5b611839576040517f08c379a0000000000000000000000000000000000000000000000000000000008152600401808060200182810382526024815260200180611d776024913960400191505060405180910390fd5b505050505050565b60008060006118508585611a9a565b5090506000806118618888886112ab565b73ffffffffffffffffffffffffffffffffffffffff16630902f1ac6040518163ffffffff1660e01b815260040160606040518083038186803b1580156118a657600080fd5b505afa1580156118ba573d6000803e3d6000fd5b505050506040513d60608110156118d057600080fd5b81019080805190602001909291908051906020019092919080519060200190929190505050506dffffffffffffffffffffffffffff1691506dffffffffffffffffffffffffffff1691508273ffffffffffffffffffffffffffffffffffffffff168773ffffffffffffffffffffffffffffffffffffffff1614611954578082611957565b81815b8095508196505050505050935093915050565b60008084116119c4576040517f08c379a000000000000000000000000000000000000000000000000000000000815260040180806020018281038252602b815260200180611d9b602b913960400191505060405180910390fd5b6000831180156119d45750600082115b611a29576040517f08c379a0000000000000000000000000000000000000000000000000000000008152600401808060200182810382526028815260200180611d4f6028913960400191505060405180910390fd5b6000611a406103e586611c1190919063ffffffff16565b90506000611a578483611c1190919063ffffffff16565b90506000611a8283611a746103e889611c1190919063ffffffff16565b611ca690919063ffffffff16565b9050808281611a8d57fe5b0493505050509392505050565b6000808273ffffffffffffffffffffffffffffffffffffffff168473ffffffffffffffffffffffffffffffffffffffff161415611b22576040517f08c379a0000000000000000000000000000000000000000000000000000000008152600401808060200182810382526025815260200180611d2a6025913960400191505060405180910390fd5b8273ffffffffffffffffffffffffffffffffffffffff168473ffffffffffffffffffffffffffffffffffffffff1610611b5c578284611b5f565b83835b8092508193505050600073ffffffffffffffffffffffffffffffffffffffff168273ffffffffffffffffffffffffffffffffffffffff161415611c0a576040517f08c379a000000000000000000000000000000000000000000000000000000000815260040180806020018281038252601e8152602001807f556e697377617056324c6962726172793a205a45524f5f41444452455353000081525060200191505060405180910390fd5b9250929050565b600080821480611c2e5750828283850292508281611c2b57fe5b04145b611ca0576040517f08c379a00000000000000000000000000000000000000000000000000000000081526004018080602001828103825260148152602001807f64732d6d6174682d6d756c2d6f766572666c6f7700000000000000000000000081525060200191505060405180910390fd5b92915050565b6000828284019150811015611d23576040517f08c379a00000000000000000000000000000000000000000000000000000000081526004018080602001828103825260148152602001807f64732d6d6174682d6164642d6f766572666c6f7700000000000000000000000081525060200191505060405180910390fd5b9291505056fe556e697377617056324c6962726172793a204944454e544943414c5f414444524553534553556e697377617056324c6962726172793a20494e53554646494349454e545f4c49515549444954595472616e7366657248656c7065723a205452414e534645525f46524f4d5f4641494c4544556e697377617056324c6962726172793a20494e53554646494349454e545f494e5055545f414d4f554e54a2646970667358221220b1cd444d67974115ce9c66390f917012f96b69c5b708fed5c34280356c76b81e64736f6c63430007000033",
  "immutableReferences": {},
  "source": "// SPDX-License-Identifier: MIT\r\n\r\npragma solidity ^0.7.0;\r\n\r\nimport './libraries/UniswapV2Library.sol';\r\nimport '@uniswap/lib/contracts/libraries/TransferHelper.sol';\r\n\r\nimport './interfaces/IWETH.sol';\r\nimport './interfaces/IERC20.sol';\r\nimport './interfaces/IUniswapV2Pair.sol';\r\nimport './interfaces/IKyberNetwork.sol';\r\n\r\ncontract SwapContractV2 {\r\n    using SafeMath for uint;\r\n\r\n    address payable private owner;\r\n    uint public minAmount = 9000000000000000000;\r\n\r\n    address private factory;\r\n    address private WETH;\r\n    address private kyberNetwork;\r\n\r\n    modifier ensure(uint _deadline) {\r\n        require(_deadline >= block.timestamp, 'EXPIRED');\r\n        _;\r\n    }\r\n\r\n    constructor(address _factory, address _WETH, address _kyberNetwork) {\r\n        factory = _factory;\r\n        WETH = _WETH;\r\n        kyberNetwork = _kyberNetwork;\r\n        owner = msg.sender;\r\n    }\r\n\r\n    modifier onlyOwner {\r\n        require(msg.sender == owner, \"UNAUTHORIZED\");\r\n        _;\r\n    }\r\n\r\n    function withdraw(uint _amount) onlyOwner public {\r\n        require(IERC20(WETH).balanceOf(address(this)) >= _amount, \"INSUFFICIENT_BALANCE\");\r\n        IWETH(WETH).transfer(owner, _amount);\r\n    }\r\n\r\n    function transfer(address payable _to, uint _amount) public {\r\n        require(msg.sender == owner || _to == owner, \"UNAUTHORIZED\");\r\n        require(IERC20(WETH).balanceOf(address(this)) >= _amount + minAmount, \"INSUFFICIENT_BALANCE\");\r\n        IWETH(WETH).transfer(_to, _amount);\r\n    }\r\n\r\n    function changeMinAmount(uint _amount) onlyOwner public {\r\n        minAmount = _amount;\r\n    }\r\n\r\n    receive() external payable {\r\n        IWETH(WETH).deposit{value: msg.value}();\r\n    }\r\n\r\n    function uniswapToKyber(\r\n        uint _amountIn, \r\n        uint _amountUniswapOutMin, \r\n        uint _amountOutMin, \r\n        uint _minConversionRate, \r\n        address[] calldata _path, \r\n        uint _deadline) \r\n        external\r\n        virtual\r\n        ensure(_deadline) {\r\n        \r\n        require(_amountOutMin > _amountIn, 'INVALID_MIN_OUTPUT');\r\n        require(_path[0] == WETH, 'INVALID_INPUT');\r\n\r\n        uint[] memory amounts = UniswapV2Library.getAmountsOut(factory, _amountIn, _path);\r\n\r\n        require(amounts[amounts.length - 1] > _amountUniswapOutMin, 'INSUFFICIENT_UNISWAP_OUTPUT');\r\n\r\n        //Uniswap Trade (WETH -> Token)\r\n        assert(IWETH(WETH).transfer(UniswapV2Library.pairFor(factory, _path[0], _path[1]), amounts[0]));\r\n        _uniswap_swap(amounts, _path);\r\n\r\n        //KyberNetwork trade (Token -> WETH)\r\n        TransferHelper.safeTransferFrom(_path[1], address(this), address(kyberNetwork), amounts[amounts.length - 1]);\r\n        bytes memory hint;\r\n        uint256 reportedDestAmount = IKyberNetwork(kyberNetwork).tradeWithHintAndFee(\r\n            address(this),\r\n            IERC20(_path[1]),\r\n            amounts[amounts.length - 1],\r\n            IERC20(_path[0]),\r\n            address(this),\r\n            10**28,\r\n            _minConversionRate,\r\n            address(this),\r\n            0,\r\n            hint\r\n        );\r\n\r\n        require(reportedDestAmount > _amountOutMin, 'INSUFFICIENT_KYBER_OUTPUT');\r\n    }\r\n\r\n    function _uniswap_swap(uint[] memory _amounts, address[] memory _path) internal virtual {\r\n        for (uint i; i < _path.length - 1; i++) {\r\n            (address input, address output) = (_path[i], _path[i + 1]);\r\n            (address token0,) = UniswapV2Library.sortTokens(input, output);\r\n            uint amountOut = _amounts[i + 1];\r\n            (uint amount0Out, uint amount1Out) = input == token0 ? (uint(0), amountOut) : (amountOut, uint(0));\r\n            address to = i < _path.length - 2 ? UniswapV2Library.pairFor(factory, output, _path[i + 2]) : address(this);\r\n            IUniswapV2Pair(UniswapV2Library.pairFor(factory, input, output)).swap(\r\n                amount0Out, amount1Out, to, new bytes(0)\r\n            );\r\n        }\r\n    }\r\n}",
  "sourcePath": "C:/Users/Ben/Documents/arbitragev2/contracts/SwapContractV2.sol",
  "compiler": {
    "name": "solc",
    "version": "0.7.0+commit.9e61f92b.Emscripten.clang"
  },
  "schemaVersion": "3.3.1",
  "updatedAt": "2020-12-08T04:01:50.103Z",
  "networkType": "ethereum",
  "devdoc": {
    "kind": "dev",
    "methods": {},
    "version": 1
  },
  "userdoc": {
    "kind": "user",
    "methods": {},
    "version": 1
  }
}